{
  "contractName": "Lottery",
  "abi": [
    {
      "inputs": [],
      "stateMutability": "nonpayable",
      "type": "constructor"
    },
    {
      "inputs": [],
      "name": "manager",
      "outputs": [
        {
          "internalType": "address",
          "name": "",
          "type": "address"
        }
      ],
      "stateMutability": "view",
      "type": "function",
      "constant": true
    },
    {
      "inputs": [
        {
          "internalType": "uint256",
          "name": "",
          "type": "uint256"
        }
      ],
      "name": "participants",
      "outputs": [
        {
          "internalType": "address payable",
          "name": "",
          "type": "address"
        }
      ],
      "stateMutability": "view",
      "type": "function",
      "constant": true
    },
    {
      "inputs": [
        {
          "internalType": "address",
          "name": "",
          "type": "address"
        }
      ],
      "name": "totalParticipant",
      "outputs": [
        {
          "internalType": "uint256",
          "name": "",
          "type": "uint256"
        }
      ],
      "stateMutability": "view",
      "type": "function",
      "constant": true
    },
    {
      "inputs": [],
      "name": "winner",
      "outputs": [
        {
          "internalType": "address payable",
          "name": "",
          "type": "address"
        }
      ],
      "stateMutability": "view",
      "type": "function",
      "constant": true
    },
    {
      "inputs": [],
      "name": "getManager",
      "outputs": [
        {
          "internalType": "address",
          "name": "",
          "type": "address"
        }
      ],
      "stateMutability": "view",
      "type": "function",
      "constant": true
    },
    {
      "inputs": [],
      "name": "enter",
      "outputs": [],
      "stateMutability": "payable",
      "type": "function",
      "payable": true
    },
    {
      "inputs": [],
      "name": "getBalance",
      "outputs": [
        {
          "internalType": "uint256",
          "name": "",
          "type": "uint256"
        }
      ],
      "stateMutability": "view",
      "type": "function",
      "constant": true
    },
    {
      "inputs": [],
      "name": "selectWinner",
      "outputs": [],
      "stateMutability": "nonpayable",
      "type": "function"
    },
    {
      "inputs": [],
      "name": "getAllParticipants",
      "outputs": [
        {
          "internalType": "address payable[]",
          "name": "",
          "type": "address[]"
        }
      ],
      "stateMutability": "view",
      "type": "function",
      "constant": true
    }
  ],
  "bytecode": "0x608060405234801561001057600080fd5b50336000806101000a81548173ffffffffffffffffffffffffffffffffffffffff021916908373ffffffffffffffffffffffffffffffffffffffff160217905550610e3b806100606000396000f3fe6080604052600436106100865760003560e01c8063481c6a7511610059578063481c6a751461013557806351191b5114610160578063d50095841461019d578063dfbf53ae146101c8578063e97dcb62146101f357610086565b806312065fe01461008b578063195ec9ee146100b657806333a99e04146100e157806335c1d349146100f8575b600080fd5b34801561009757600080fd5b506100a06101fd565b6040516100ad91906107e9565b60405180910390f35b3480156100c257600080fd5b506100cb610294565b6040516100d891906108f4565b60405180910390f35b3480156100ed57600080fd5b506100f6610322565b005b34801561010457600080fd5b5061011f600480360381019061011a9190610947565b61050d565b60405161012c9190610983565b60405180910390f35b34801561014157600080fd5b5061014a61054c565b60405161015791906109bf565b60405180910390f35b34801561016c57600080fd5b5061018760048036038101906101829190610a06565b610570565b60405161019491906107e9565b60405180910390f35b3480156101a957600080fd5b506101b2610588565b6040516101bf91906109bf565b60405180910390f35b3480156101d457600080fd5b506101dd6105b1565b6040516101ea9190610983565b60405180910390f35b6101fb6105d7565b005b60008060009054906101000a900473ffffffffffffffffffffffffffffffffffffffff1673ffffffffffffffffffffffffffffffffffffffff163373ffffffffffffffffffffffffffffffffffffffff161461028e576040517f08c379a000000000000000000000000000000000000000000000000000000000815260040161028590610ab6565b60405180910390fd5b47905090565b6060600180548060200260200160405190810160405280929190818152602001828054801561031857602002820191906000526020600020905b8160009054906101000a900473ffffffffffffffffffffffffffffffffffffffff1673ffffffffffffffffffffffffffffffffffffffff16815260200190600101908083116102ce575b5050505050905090565b60008054906101000a900473ffffffffffffffffffffffffffffffffffffffff1673ffffffffffffffffffffffffffffffffffffffff163373ffffffffffffffffffffffffffffffffffffffff16146103b0576040517f08c379a00000000000000000000000000000000000000000000000000000000081526004016103a790610b22565b60405180910390fd5b600360018054905010156103f9576040517f08c379a00000000000000000000000000000000000000000000000000000000081526004016103f090610bb4565b60405180910390fd5b6000610403610796565b90506000600180549050826104189190610c03565b90506001818154811061042e5761042d610c34565b5b9060005260206000200160009054906101000a900473ffffffffffffffffffffffffffffffffffffffff16600260006101000a81548173ffffffffffffffffffffffffffffffffffffffff021916908373ffffffffffffffffffffffffffffffffffffffff160217905550600260009054906101000a900473ffffffffffffffffffffffffffffffffffffffff1673ffffffffffffffffffffffffffffffffffffffff166108fc6104dd6101fd565b9081150290604051600060405180830381858888f19350505050158015610508573d6000803e3d6000fd5b505050565b6001818154811061051d57600080fd5b906000526020600020016000915054906101000a900473ffffffffffffffffffffffffffffffffffffffff1681565b60008054906101000a900473ffffffffffffffffffffffffffffffffffffffff1681565b60036020528060005260406000206000915090505481565b60008060009054906101000a900473ffffffffffffffffffffffffffffffffffffffff16905090565b600260009054906101000a900473ffffffffffffffffffffffffffffffffffffffff1681565b3373ffffffffffffffffffffffffffffffffffffffff1660008054906101000a900473ffffffffffffffffffffffffffffffffffffffff1673ffffffffffffffffffffffffffffffffffffffff1603610665576040517f08c379a000000000000000000000000000000000000000000000000000000000815260040161065c90610caf565b60405180910390fd5b670de0b6b3a764000034146106af576040517f08c379a00000000000000000000000000000000000000000000000000000000081526004016106a690610d1b565b60405180910390fd5b6000600360003373ffffffffffffffffffffffffffffffffffffffff1673ffffffffffffffffffffffffffffffffffffffff1681526020019081526020016000205414610731576040517f08c379a000000000000000000000000000000000000000000000000000000000815260040161072890610d87565b60405180910390fd5b6001339080600181540180825580915050600190039060005260206000200160009091909190916101000a81548173ffffffffffffffffffffffffffffffffffffffff021916908373ffffffffffffffffffffffffffffffffffffffff160217905550565b600044426001805490506040516020016107b293929190610dc8565b6040516020818303038152906040528051906020012060001c905090565b6000819050919050565b6107e3816107d0565b82525050565b60006020820190506107fe60008301846107da565b92915050565b600081519050919050565b600082825260208201905092915050565b6000819050602082019050919050565b600073ffffffffffffffffffffffffffffffffffffffff82169050919050565b600061085b82610830565b9050919050565b61086b81610850565b82525050565b600061087d8383610862565b60208301905092915050565b6000602082019050919050565b60006108a182610804565b6108ab818561080f565b93506108b683610820565b8060005b838110156108e75781516108ce8882610871565b97506108d983610889565b9250506001810190506108ba565b5085935050505092915050565b6000602082019050818103600083015261090e8184610896565b905092915050565b600080fd5b610924816107d0565b811461092f57600080fd5b50565b6000813590506109418161091b565b92915050565b60006020828403121561095d5761095c610916565b5b600061096b84828501610932565b91505092915050565b61097d81610850565b82525050565b60006020820190506109986000830184610974565b92915050565b60006109a982610830565b9050919050565b6109b98161099e565b82525050565b60006020820190506109d460008301846109b0565b92915050565b6109e38161099e565b81146109ee57600080fd5b50565b600081359050610a00816109da565b92915050565b600060208284031215610a1c57610a1b610916565b5b6000610a2a848285016109f1565b91505092915050565b600082825260208201905092915050565b7f6f6e6c79206d616e616765722063616e2063616c6c20746869732066756e637460008201527f696f6e0000000000000000000000000000000000000000000000000000000000602082015250565b6000610aa0602383610a33565b9150610aab82610a44565b604082019050919050565b60006020820190508181036000830152610acf81610a93565b9050919050565b7f796f7520617265206e6f7420746865206d616e61676572000000000000000000600082015250565b6000610b0c601783610a33565b9150610b1782610ad6565b602082019050919050565b60006020820190508181036000830152610b3b81610aff565b9050919050565b7f74686572652073686f756c642062652061746c65617374203320706c6179657260008201527f7300000000000000000000000000000000000000000000000000000000000000602082015250565b6000610b9e602183610a33565b9150610ba982610b42565b604082019050919050565b60006020820190508181036000830152610bcd81610b91565b9050919050565b7f4e487b7100000000000000000000000000000000000000000000000000000000600052601260045260246000fd5b6000610c0e826107d0565b9150610c19836107d0565b925082610c2957610c28610bd4565b5b828206905092915050565b7f4e487b7100000000000000000000000000000000000000000000000000000000600052603260045260246000fd5b7f6d616e616765722063616e742070617274696369706174650000000000000000600082015250565b6000610c99601883610a33565b9150610ca482610c63565b602082019050919050565b60006020820190508181036000830152610cc881610c8c565b9050919050565b7f656e7472792076616c7565206973203120657468657200000000000000000000600082015250565b6000610d05601683610a33565b9150610d1082610ccf565b602082019050919050565b60006020820190508181036000830152610d3481610cf8565b9050919050565b7f796f75206861766520616c726561647920706172746963697061746564000000600082015250565b6000610d71601d83610a33565b9150610d7c82610d3b565b602082019050919050565b60006020820190508181036000830152610da081610d64565b9050919050565b6000819050919050565b610dc2610dbd826107d0565b610da7565b82525050565b6000610dd48286610db1565b602082019150610de48285610db1565b602082019150610df48284610db1565b60208201915081905094935050505056fea2646970667358221220224df261f914b78936b1a7570498a661891a4331add206b20a9a5406fe5f8f4264736f6c63430008110033",
  "immutableReferences": {},
  "source": "\r\n// spdx-license-identifier:mit;\r\npragma solidity ^0.8.8;\r\n\r\ncontract Lottery{\r\n    address public manager;\r\n    address payable[] public participants;\r\n    address payable public winner;\r\n\r\n    constructor() public {\r\n        manager = payable(msg.sender);\r\n    }\r\n\r\n    mapping(address => uint) public totalParticipant;\r\n\r\n    function getManager() public view returns(address){\r\n        return manager;\r\n    }\r\n\r\n    function enter() external payable{\r\n        require(manager != msg.sender, \"manager cant participate\");\r\n        require(msg.value==1 ether,\"entry value is 1 ether\");\r\n        require(totalParticipant[msg.sender] == 0, \"you have already participated\");\r\n        participants.push(payable(msg.sender));\r\n    }\r\n\r\n    function getBalance() public view returns(uint){\r\n        require(msg.sender==manager,\"only manager can call this function\");\r\n        return address(this).balance;\r\n    }\r\n\r\n    function randomAddress()private view returns(uint){\r\n        return uint(keccak256(abi.encodePacked(block.difficulty,block.timestamp, participants.length)));\r\n    }\r\n    function selectWinner() public {\r\n       require(msg.sender==manager,\"you are not the manager\");\r\n       require(participants.length >= 3, \"there should be atleast 3 players\");\r\n       uint r =randomAddress();\r\n       uint index = r % participants.length;\r\n       winner = participants[index];\r\n       winner.transfer(getBalance());\r\n\r\n    }\r\n\r\n    function getAllParticipants() public view returns(address payable[] memory){\r\n        return participants;\r\n    }\r\n}\r\n\r\n",
  "sourcePath": "C:\\Users\\HP\\PycharmProjects\\pythonProject\\pythonProject\\pythonProject\\reactProject\\lottery-dapp\\contracts\\Lottery.sol",
  "compiler": {
    "name": "solc",
    "version": "0.8.17+commit.8df45f5f.Emscripten.clang"
  },
  "schemaVersion": "3.4.11",
  "updatedAt": "2023-02-04T16:12:13.714Z",
  "networkType": "ethereum",
  "devdoc": {
    "kind": "dev",
    "methods": {},
    "version": 1
  },
  "userdoc": {
    "kind": "user",
    "methods": {},
    "version": 1
  }
}